{
  "_format": "hh-sol-artifact-1",
  "contractName": "PolygonZkEVMBridge",
  "sourceName": "contracts/PolygonZkEVMBridge.sol",
  "abi": [
    {
      "inputs": [],
      "name": "AlreadyClaimed",
      "type": "error"
    },
    {
      "inputs": [],
      "name": "AmountDoesNotMatchMsgValue",
      "type": "error"
    },
    {
      "inputs": [],
      "name": "AmountTooSmall",
      "type": "error"
    },
    {
      "inputs": [],
      "name": "DestinationNetworkInvalid",
      "type": "error"
    },
    {
      "inputs": [],
      "name": "EtherTransferFailed",
      "type": "error"
    },
    {
      "inputs": [],
      "name": "GlobalExitRootInvalid",
      "type": "error"
    },
    {
      "inputs": [],
      "name": "InvalidSmtProof",
      "type": "error"
    },
    {
      "inputs": [],
      "name": "MerkleTreeFull",
      "type": "error"
    },
    {
      "inputs": [],
      "name": "MessageFailed",
      "type": "error"
    },
    {
      "inputs": [],
      "name": "MsgValueNotZero",
      "type": "error"
    },
    {
      "inputs": [],
      "name": "NotValidAmount",
      "type": "error"
    },
    {
      "inputs": [],
      "name": "NotValidOwner",
      "type": "error"
    },
    {
      "inputs": [],
      "name": "NotValidSignature",
      "type": "error"
    },
    {
      "inputs": [],
      "name": "NotValidSpender",
      "type": "error"
    },
    {
      "inputs": [],
      "name": "OnlyAdmin",
      "type": "error"
    },
    {
      "inputs": [],
      "name": "OnlyEmergencyState",
      "type": "error"
    },
    {
      "inputs": [],
      "name": "OnlyNotEmergencyState",
      "type": "error"
    },
    {
      "inputs": [],
      "name": "OnlyPolygonZkEVM",
      "type": "error"
    },
    {
      "anonymous": false,
      "inputs": [
        {
          "indexed": false,
          "internalType": "uint8",
          "name": "leafType",
          "type": "uint8"
        },
        {
          "indexed": false,
          "internalType": "uint32",
          "name": "originNetwork",
          "type": "uint32"
        },
        {
          "indexed": false,
          "internalType": "address",
          "name": "originAddress",
          "type": "address"
        },
        {
          "indexed": false,
          "internalType": "uint32",
          "name": "destinationNetwork",
          "type": "uint32"
        },
        {
          "indexed": false,
          "internalType": "address",
          "name": "destinationAddress",
          "type": "address"
        },
        {
          "indexed": false,
          "internalType": "uint256",
          "name": "amount",
          "type": "uint256"
        },
        {
          "indexed": false,
          "internalType": "bytes",
          "name": "metadata",
          "type": "bytes"
        },
        {
          "indexed": false,
          "internalType": "uint32",
          "name": "depositCount",
          "type": "uint32"
        }
      ],
      "name": "BridgeEvent",
      "type": "event"
    },
    {
      "anonymous": false,
      "inputs": [
        {
          "indexed": false,
          "internalType": "uint32",
          "name": "index",
          "type": "uint32"
        },
        {
          "indexed": false,
          "internalType": "uint32",
          "name": "originNetwork",
          "type": "uint32"
        },
        {
          "indexed": false,
          "internalType": "address",
          "name": "originAddress",
          "type": "address"
        },
        {
          "indexed": false,
          "internalType": "address",
          "name": "destinationAddress",
          "type": "address"
        },
        {
          "indexed": false,
          "internalType": "uint256",
          "name": "amount",
          "type": "uint256"
        }
      ],
      "name": "ClaimEvent",
      "type": "event"
    },
    {
      "anonymous": false,
      "inputs": [],
      "name": "EmergencyStateActivated",
      "type": "event"
    },
    {
      "anonymous": false,
      "inputs": [],
      "name": "EmergencyStateDeactivated",
      "type": "event"
    },
    {
      "anonymous": false,
      "inputs": [
        {
          "indexed": false,
          "internalType": "uint8",
          "name": "version",
          "type": "uint8"
        }
      ],
      "name": "Initialized",
      "type": "event"
    },
    {
      "anonymous": false,
      "inputs": [
        {
          "indexed": false,
          "internalType": "uint32",
          "name": "originNetwork",
          "type": "uint32"
        },
        {
          "indexed": false,
          "internalType": "address",
          "name": "originTokenAddress",
          "type": "address"
        },
        {
          "indexed": false,
          "internalType": "address",
          "name": "wrappedTokenAddress",
          "type": "address"
        },
        {
          "indexed": false,
          "internalType": "bytes",
          "name": "metadata",
          "type": "bytes"
        }
      ],
      "name": "NewWrappedToken",
      "type": "event"
    },
    {
      "inputs": [],
      "name": "activateEmergencyState",
      "outputs": [],
      "stateMutability": "nonpayable",
      "type": "function"
    },
    {
      "inputs": [],
      "name": "admin",
      "outputs": [
        {
          "internalType": "address",
          "name": "",
          "type": "address"
        }
      ],
      "stateMutability": "view",
      "type": "function"
    },
    {
      "inputs": [
        {
          "internalType": "uint32",
          "name": "destinationNetwork",
          "type": "uint32"
        },
        {
          "internalType": "address",
          "name": "destinationAddress",
          "type": "address"
        },
        {
          "internalType": "uint256",
          "name": "amount",
          "type": "uint256"
        },
        {
          "internalType": "address",
          "name": "token",
          "type": "address"
        },
        {
          "internalType": "bool",
          "name": "forceUpdateGlobalExitRoot",
          "type": "bool"
        },
        {
          "internalType": "bytes",
          "name": "permitData",
          "type": "bytes"
        }
      ],
      "name": "bridgeAsset",
      "outputs": [],
      "stateMutability": "payable",
      "type": "function"
    },
    {
      "inputs": [],
      "name": "bridgeFee",
      "outputs": [
        {
          "internalType": "uint256",
          "name": "",
          "type": "uint256"
        }
      ],
      "stateMutability": "view",
      "type": "function"
    },
    {
      "inputs": [
        {
          "internalType": "bytes32[32]",
          "name": "smtProof",
          "type": "bytes32[32]"
        },
        {
          "internalType": "uint32",
          "name": "index",
          "type": "uint32"
        },
        {
          "internalType": "bytes32",
          "name": "mainnetExitRoot",
          "type": "bytes32"
        },
        {
          "internalType": "bytes32",
          "name": "rollupExitRoot",
          "type": "bytes32"
        },
        {
          "internalType": "uint32",
          "name": "originNetwork",
          "type": "uint32"
        },
        {
          "internalType": "address",
          "name": "originTokenAddress",
          "type": "address"
        },
        {
          "internalType": "uint32",
          "name": "destinationNetwork",
          "type": "uint32"
        },
        {
          "internalType": "address",
          "name": "destinationAddress",
          "type": "address"
        },
        {
          "internalType": "uint256",
          "name": "amount",
          "type": "uint256"
        },
        {
          "internalType": "bytes",
          "name": "metadata",
          "type": "bytes"
        }
      ],
      "name": "claimAsset",
      "outputs": [],
      "stateMutability": "nonpayable",
      "type": "function"
    },
    {
      "inputs": [
        {
          "internalType": "uint256",
          "name": "",
          "type": "uint256"
        }
      ],
      "name": "claimedBitMap",
      "outputs": [
        {
          "internalType": "uint256",
          "name": "",
          "type": "uint256"
        }
      ],
      "stateMutability": "view",
      "type": "function"
    },
    {
      "inputs": [],
      "name": "deactivateEmergencyState",
      "outputs": [],
      "stateMutability": "nonpayable",
      "type": "function"
    },
    {
      "inputs": [],
      "name": "depositCount",
      "outputs": [
        {
          "internalType": "uint256",
          "name": "",
          "type": "uint256"
        }
      ],
      "stateMutability": "view",
      "type": "function"
    },
    {
      "inputs": [],
      "name": "feeAddress",
      "outputs": [
        {
          "internalType": "address",
          "name": "",
          "type": "address"
        }
      ],
      "stateMutability": "view",
      "type": "function"
    },
    {
      "inputs": [],
      "name": "gasTokenAddress",
      "outputs": [
        {
          "internalType": "address",
          "name": "",
          "type": "address"
        }
      ],
      "stateMutability": "view",
      "type": "function"
    },
    {
      "inputs": [],
      "name": "gasTokenDecimalDiffFactor",
      "outputs": [
        {
          "internalType": "uint256",
          "name": "",
          "type": "uint256"
        }
      ],
      "stateMutability": "view",
      "type": "function"
    },
    {
      "inputs": [],
      "name": "gasTokenMetadata",
      "outputs": [
        {
          "internalType": "bytes",
          "name": "",
          "type": "bytes"
        }
      ],
      "stateMutability": "view",
      "type": "function"
    },
    {
      "inputs": [],
      "name": "getDepositRoot",
      "outputs": [
        {
          "internalType": "bytes32",
          "name": "",
          "type": "bytes32"
        }
      ],
      "stateMutability": "view",
      "type": "function"
    },
    {
      "inputs": [
        {
          "internalType": "uint8",
          "name": "leafType",
          "type": "uint8"
        },
        {
          "internalType": "uint32",
          "name": "originNetwork",
          "type": "uint32"
        },
        {
          "internalType": "address",
          "name": "originAddress",
          "type": "address"
        },
        {
          "internalType": "uint32",
          "name": "destinationNetwork",
          "type": "uint32"
        },
        {
          "internalType": "address",
          "name": "destinationAddress",
          "type": "address"
        },
        {
          "internalType": "uint256",
          "name": "amount",
          "type": "uint256"
        },
        {
          "internalType": "bytes32",
          "name": "metadataHash",
          "type": "bytes32"
        }
      ],
      "name": "getLeafValue",
      "outputs": [
        {
          "internalType": "bytes32",
          "name": "",
          "type": "bytes32"
        }
      ],
      "stateMutability": "pure",
      "type": "function"
    },
    {
      "inputs": [
        {
          "internalType": "uint32",
          "name": "originNetwork",
          "type": "uint32"
        },
        {
          "internalType": "address",
          "name": "originTokenAddress",
          "type": "address"
        }
      ],
      "name": "getTokenWrappedAddress",
      "outputs": [
        {
          "internalType": "address",
          "name": "",
          "type": "address"
        }
      ],
      "stateMutability": "view",
      "type": "function"
    },
    {
      "inputs": [],
      "name": "globalExitRootManager",
      "outputs": [
        {
          "internalType": "contract IBasePolygonZkEVMGlobalExitRoot",
          "name": "",
          "type": "address"
        }
      ],
      "stateMutability": "view",
      "type": "function"
    },
    {
      "inputs": [
        {
          "internalType": "uint32",
          "name": "_networkID",
          "type": "uint32"
        },
        {
          "internalType": "contract IBasePolygonZkEVMGlobalExitRoot",
          "name": "_globalExitRootManager",
          "type": "address"
        },
        {
          "internalType": "address",
          "name": "_polygonZkEVMaddress",
          "type": "address"
        },
        {
          "internalType": "address",
          "name": "_admin",
          "type": "address"
        },
        {
          "internalType": "uint256",
          "name": "_bridgeFee",
          "type": "uint256"
        },
        {
          "internalType": "address",
          "name": "_feeAddress",
          "type": "address"
        },
        {
          "internalType": "address",
          "name": "_gasTokenAddress",
          "type": "address"
        },
        {
          "internalType": "bytes",
          "name": "_gasTokenMetadata",
          "type": "bytes"
        },
        {
          "internalType": "uint256",
          "name": "_gasTokenDecimalDiffFactor",
          "type": "uint256"
        }
      ],
      "name": "initialize",
      "outputs": [],
      "stateMutability": "nonpayable",
      "type": "function"
    },
    {
      "inputs": [
        {
          "internalType": "uint256",
          "name": "index",
          "type": "uint256"
        }
      ],
      "name": "isClaimed",
      "outputs": [
        {
          "internalType": "bool",
          "name": "",
          "type": "bool"
        }
      ],
      "stateMutability": "view",
      "type": "function"
    },
    {
      "inputs": [],
      "name": "isEmergencyState",
      "outputs": [
        {
          "internalType": "bool",
          "name": "",
          "type": "bool"
        }
      ],
      "stateMutability": "view",
      "type": "function"
    },
    {
      "inputs": [],
      "name": "lastUpdatedDepositCount",
      "outputs": [
        {
          "internalType": "uint32",
          "name": "",
          "type": "uint32"
        }
      ],
      "stateMutability": "view",
      "type": "function"
    },
    {
      "inputs": [],
      "name": "networkID",
      "outputs": [
        {
          "internalType": "uint32",
          "name": "",
          "type": "uint32"
        }
      ],
      "stateMutability": "view",
      "type": "function"
    },
    {
      "inputs": [],
      "name": "polygonZkEVMaddress",
      "outputs": [
        {
          "internalType": "address",
          "name": "",
          "type": "address"
        }
      ],
      "stateMutability": "view",
      "type": "function"
    },
    {
      "inputs": [
        {
          "internalType": "uint32",
          "name": "originNetwork",
          "type": "uint32"
        },
        {
          "internalType": "address",
          "name": "originTokenAddress",
          "type": "address"
        },
        {
          "internalType": "string",
          "name": "name",
          "type": "string"
        },
        {
          "internalType": "string",
          "name": "symbol",
          "type": "string"
        },
        {
          "internalType": "uint8",
          "name": "decimals",
          "type": "uint8"
        }
      ],
      "name": "precalculatedWrapperAddress",
      "outputs": [
        {
          "internalType": "address",
          "name": "",
          "type": "address"
        }
      ],
      "stateMutability": "view",
      "type": "function"
    },
    {
      "inputs": [
        {
          "internalType": "address",
          "name": "_feeAddress",
          "type": "address"
        },
        {
          "internalType": "uint256",
          "name": "_bridgeFee",
          "type": "uint256"
        }
      ],
      "name": "setBridgeSettingsFee",
      "outputs": [],
      "stateMutability": "nonpayable",
      "type": "function"
    },
    {
      "inputs": [
        {
          "internalType": "bytes32",
          "name": "",
          "type": "bytes32"
        }
      ],
      "name": "tokenInfoToWrappedToken",
      "outputs": [
        {
          "internalType": "address",
          "name": "",
          "type": "address"
        }
      ],
      "stateMutability": "view",
      "type": "function"
    },
    {
      "inputs": [],
      "name": "updateGlobalExitRoot",
      "outputs": [],
      "stateMutability": "nonpayable",
      "type": "function"
    },
    {
      "inputs": [
        {
          "internalType": "bytes32",
          "name": "leafHash",
          "type": "bytes32"
        },
        {
          "internalType": "bytes32[32]",
          "name": "smtProof",
          "type": "bytes32[32]"
        },
        {
          "internalType": "uint32",
          "name": "index",
          "type": "uint32"
        },
        {
          "internalType": "bytes32",
          "name": "root",
          "type": "bytes32"
        }
      ],
      "name": "verifyMerkleProof",
      "outputs": [
        {
          "internalType": "bool",
          "name": "",
          "type": "bool"
        }
      ],
      "stateMutability": "pure",
      "type": "function"
    },
    {
      "inputs": [
        {
          "internalType": "address",
          "name": "",
          "type": "address"
        }
      ],
      "name": "wrappedTokenToTokenInfo",
      "outputs": [
        {
          "internalType": "uint32",
          "name": "originNetwork",
          "type": "uint32"
        },
        {
          "internalType": "address",
          "name": "originTokenAddress",
          "type": "address"
        }
      ],
      "stateMutability": "view",
      "type": "function"
    }
  ],
  "bytecode": "0x608060405234801561001057600080fd5b50615bb0806100206000396000f3fe608060405260043610620001db5760003560e01c8063787e05da11620000ff578063be5831c71162000095578063dbc16976116200006c578063dbc169761462000713578063ee25560b146200072b578063f851a440146200075c578063fb570834146200078b57600080fd5b8063be5831c71462000688578063cd58657914620006c4578063d02103ca14620006db57600080fd5b806382b12dd711620000d657806382b12dd714620005cc5780639e34070f14620005e4578063aaa13cc21462000629578063bab161bf146200064e57600080fd5b8063787e05da146200054857806379e2cf97146200056d57806381b1c174146200058557600080fd5b806334ac9cf211620001755780633e197043116200014c5780633e19704314620003e85780634127535814620004dc5780635a278b3c146200050b57806363a9bf82146200052357600080fd5b806334ac9cf214620003725780633ae0504714620003a15780633c351e1014620003b957600080fd5b806327aef4e811620001b657806327aef4e814620002765780632cffd02e146200029d5780632dfdf0b514620002c2578063318aee3d14620002e957600080fd5b806315064c9614620001e05780632072f6c5146200021157806322e95f2c146200022b575b600080fd5b348015620001ed57600080fd5b50606854620001fc9060ff1681565b60405190151581526020015b60405180910390f35b3480156200021e57600080fd5b5062000229620007b0565b005b3480156200023857600080fd5b50620002506200024a366004620031ce565b6200080e565b60405173ffffffffffffffffffffffffffffffffffffffff909116815260200162000208565b3480156200028357600080fd5b506200028e620008b1565b6040516200020891906200327c565b348015620002aa57600080fd5b5062000229620002bc366004620032f7565b62000947565b348015620002cf57600080fd5b50620002da60535481565b60405190815260200162000208565b348015620002f657600080fd5b506200034062000308366004620033dd565b606b6020526000908152604090205463ffffffff811690640100000000900473ffffffffffffffffffffffffffffffffffffffff1682565b6040805163ffffffff909316835273ffffffffffffffffffffffffffffffffffffffff90911660208301520162000208565b3480156200037f57600080fd5b50606c54620002509073ffffffffffffffffffffffffffffffffffffffff1681565b348015620003ae57600080fd5b50620002da62000eeb565b348015620003c657600080fd5b50607054620002509073ffffffffffffffffffffffffffffffffffffffff1681565b348015620003f557600080fd5b50620002da620004073660046200340d565b6040517fff0000000000000000000000000000000000000000000000000000000000000060f889901b1660208201527fffffffff0000000000000000000000000000000000000000000000000000000060e088811b821660218401527fffffffffffffffffffffffffffffffffffffffff000000000000000000000000606089811b821660258601529188901b909216603984015285901b16603d8201526051810183905260718101829052600090609101604051602081830303815290604052805190602001209050979650505050505050565b348015620004e957600080fd5b50606f54620002509073ffffffffffffffffffffffffffffffffffffffff1681565b3480156200051857600080fd5b50620002da60725481565b3480156200053057600080fd5b506200022962000542366004620035bd565b62000fd1565b3480156200055557600080fd5b5062000229620005673660046200368c565b62001480565b3480156200057a57600080fd5b506200022962001541565b3480156200059257600080fd5b5062000250620005a4366004620036bb565b606a6020526000908152604090205473ffffffffffffffffffffffffffffffffffffffff1681565b348015620005d957600080fd5b50620002da606e5481565b348015620005f157600080fd5b50620001fc62000603366004620036bb565b600881901c600090815260696020526040902054600160ff9092169190911b9081161490565b3480156200063657600080fd5b506200025062000648366004620036d5565b6200157b565b3480156200065b57600080fd5b506068546200067290610100900463ffffffff1681565b60405163ffffffff909116815260200162000208565b3480156200069557600080fd5b506068546200067290790100000000000000000000000000000000000000000000000000900463ffffffff1681565b62000229620006d536600462003798565b62001767565b348015620006e857600080fd5b50606854620002509065010000000000900473ffffffffffffffffffffffffffffffffffffffff1681565b3480156200072057600080fd5b506200022962001f5e565b3480156200073857600080fd5b50620002da6200074a366004620036bb565b60696020526000908152604090205481565b3480156200076957600080fd5b50606d54620002509073ffffffffffffffffffffffffffffffffffffffff1681565b3480156200079857600080fd5b50620001fc620007aa3660046200383a565b62001fba565b606c5473ffffffffffffffffffffffffffffffffffffffff16331462000802576040517fe2e8106b00000000000000000000000000000000000000000000000000000000815260040160405180910390fd5b6200080c620020a3565b565b6040805160e084901b7fffffffff0000000000000000000000000000000000000000000000000000000016602080830191909152606084901b7fffffffffffffffffffffffffffffffffffffffff00000000000000000000000016602483015282516018818403018152603890920183528151918101919091206000908152606a909152205473ffffffffffffffffffffffffffffffffffffffff165b92915050565b60718054620008c09062003887565b80601f0160208091040260200160405190810160405280929190818152602001828054620008ee9062003887565b80156200093f5780601f1062000913576101008083540402835291602001916200093f565b820191906000526020600020905b8154815290600101906020018083116200092157829003601f168201915b505050505081565b60685460ff161562000985576040517f2f0047fc00000000000000000000000000000000000000000000000000000000815260040160405180910390fd5b6200099c8b8b8b8b8b8b8b8b8b8b8b600062002137565b73ffffffffffffffffffffffffffffffffffffffff861662000a78576040805160008082526020820190925273ffffffffffffffffffffffffffffffffffffffff8616908590604051620009f19190620038dc565b60006040518083038185875af1925050503d806000811462000a30576040519150601f19603f3d011682016040523d82523d6000602084013e62000a35565b606091505b505090508062000a71576040517f6747a28800000000000000000000000000000000000000000000000000000000815260040160405180910390fd5b5062000e73565b60685463ffffffff61010090910481169088160362000aba5762000ab473ffffffffffffffffffffffffffffffffffffffff8716858562002405565b62000e73565b6040517fffffffff0000000000000000000000000000000000000000000000000000000060e089901b1660208201527fffffffffffffffffffffffffffffffffffffffff000000000000000000000000606088901b166024820152600090603801604080517fffffffffffffffffffffffffffffffffffffffffffffffffffffffffffffffe081840301815291815281516020928301206000818152606a90935291205490915073ffffffffffffffffffffffffffffffffffffffff168062000de5576000808062000b8f86880188620038fa565b92509250925060008584848460405162000ba99062003185565b62000bb7939291906200397b565b8190604051809103906000f590508015801562000bd8573d6000803e3d6000fd5b506040517f40c10f1900000000000000000000000000000000000000000000000000000000815273ffffffffffffffffffffffffffffffffffffffff8c81166004830152602482018c9052919250908216906340c10f1990604401600060405180830381600087803b15801562000c4e57600080fd5b505af115801562000c63573d6000803e3d6000fd5b5050505080606a600088815260200190815260200160002060006101000a81548173ffffffffffffffffffffffffffffffffffffffff021916908373ffffffffffffffffffffffffffffffffffffffff16021790555060405180604001604052808e63ffffffff1681526020018d73ffffffffffffffffffffffffffffffffffffffff16815250606b60008373ffffffffffffffffffffffffffffffffffffffff1673ffffffffffffffffffffffffffffffffffffffff16815260200190815260200160002060008201518160000160006101000a81548163ffffffff021916908363ffffffff16021790555060208201518160000160046101000a81548173ffffffffffffffffffffffffffffffffffffffff021916908373ffffffffffffffffffffffffffffffffffffffff1602179055509050507f490e59a1701b938786ac72570a1efeac994a3dbe96e2e883e19e902ace6e6a398d8d838b8b60405162000dd395949392919062003a01565b60405180910390a15050505062000e70565b6040517f40c10f1900000000000000000000000000000000000000000000000000000000815273ffffffffffffffffffffffffffffffffffffffff8781166004830152602482018790528216906340c10f1990604401600060405180830381600087803b15801562000e5657600080fd5b505af115801562000e6b573d6000803e3d6000fd5b505050505b50505b6040805163ffffffff8c811682528916602082015273ffffffffffffffffffffffffffffffffffffffff88811682840152861660608201526080810185905290517f25308c93ceeed162da955b3f7ce3e3f93606579e40fb92029faa9efe275459839181900360a00190a15050505050505050505050565b605354600090819081805b602081101562000fc8578083901c60011660010362000f59576033816020811062000f255762000f2562003a49565b0154604080516020810192909252810185905260600160405160208183030381529060405280519060200120935062000f86565b60408051602081018690529081018390526060016040516020818303038152906040528051906020012093505b6040805160208101849052908101839052606001604051602081830303815290604052805190602001209150808062000fbf9062003aa7565b91505062000ef6565b50919392505050565b8673ffffffffffffffffffffffffffffffffffffffff811662001055576040517f08c379a000000000000000000000000000000000000000000000000000000000815260206004820152600f60248201527f496c6c6567616c2061646472657373000000000000000000000000000000000060448201526064015b60405180910390fd5b8673ffffffffffffffffffffffffffffffffffffffff8116620010d5576040517f08c379a000000000000000000000000000000000000000000000000000000000815260206004820152600f60248201527f496c6c6567616c2061646472657373000000000000000000000000000000000060448201526064016200104c565b8573ffffffffffffffffffffffffffffffffffffffff811662001155576040517f08c379a000000000000000000000000000000000000000000000000000000000815260206004820152600f60248201527f496c6c6567616c2061646472657373000000000000000000000000000000000060448201526064016200104c565b600054610100900460ff1615808015620011765750600054600160ff909116105b80620011925750303b15801562001192575060005460ff166001145b62001220576040517f08c379a000000000000000000000000000000000000000000000000000000000815260206004820152602e60248201527f496e697469616c697a61626c653a20636f6e747261637420697320616c72656160448201527f647920696e697469616c697a656400000000000000000000000000000000000060648201526084016200104c565b600080547fffffffffffffffffffffffffffffffffffffffffffffffffffffffffffffff0016600117905580156200127f57600080547fffffffffffffffffffffffffffffffffffffffffffffffffffffffffffff00ff166101001790555b8c606860016101000a81548163ffffffff021916908363ffffffff1602179055508b606860056101000a81548173ffffffffffffffffffffffffffffffffffffffff021916908373ffffffffffffffffffffffffffffffffffffffff1602179055508a606c60006101000a81548173ffffffffffffffffffffffffffffffffffffffff021916908373ffffffffffffffffffffffffffffffffffffffff16021790555089606d60006101000a81548173ffffffffffffffffffffffffffffffffffffffff021916908373ffffffffffffffffffffffffffffffffffffffff16021790555088606e8190555087606f60006101000a81548173ffffffffffffffffffffffffffffffffffffffff021916908373ffffffffffffffffffffffffffffffffffffffff16021790555086607060006101000a81548173ffffffffffffffffffffffffffffffffffffffff021916908373ffffffffffffffffffffffffffffffffffffffff1602179055508560719081620013fd919062003b34565b5060728590556200140d620024e0565b80156200147157600080547fffffffffffffffffffffffffffffffffffffffffffffffffffffffffffff00ff169055604051600181527f7f26b83ff96e1f2b6a682f133852f6798a09c465da95921460cefb38474024989060200160405180910390a15b50505050505050505050505050565b606d5473ffffffffffffffffffffffffffffffffffffffff163314620014d2576040517f4755657900000000000000000000000000000000000000000000000000000000815260040160405180910390fd5b73ffffffffffffffffffffffffffffffffffffffff8216156200153057606f80547fffffffffffffffffffffffff00000000000000000000000000000000000000001673ffffffffffffffffffffffffffffffffffffffff84161790555b80156200153d57606e8190555b5050565b605354606854790100000000000000000000000000000000000000000000000000900463ffffffff1610156200080c576200080c62002583565b6040517fffffffff0000000000000000000000000000000000000000000000000000000060e089901b1660208201527fffffffffffffffffffffffffffffffffffffffff000000000000000000000000606088901b1660248201526000908190603801604051602081830303815290604052805190602001209050600060ff60f81b308360405180602001620016119062003185565b7fffffffffffffffffffffffffffffffffffffffffffffffffffffffffffffffe082820381018352601f9091011660408190526200165c908d908d908d908d908d9060200162003c5b565b604080517fffffffffffffffffffffffffffffffffffffffffffffffffffffffffffffffe0818403018152908290526200169a929160200162003c9c565b604051602081830303815290604052805190602001206040516020016200172394939291907fff0000000000000000000000000000000000000000000000000000000000000094909416845260609290921b7fffffffffffffffffffffffffffffffffffffffff0000000000000000000000001660018401526015830152603582015260550190565b604080518083037fffffffffffffffffffffffffffffffffffffffffffffffffffffffffffffffe001815291905280516020909101209a9950505050505050505050565b60685460ff1615620017a5576040517f2f0047fc00000000000000000000000000000000000000000000000000000000815260040160405180910390fd5b620017af6200265e565b60685463ffffffff888116610100909204161480620017d55750600263ffffffff881610155b156200180d576040517f0595ea2e00000000000000000000000000000000000000000000000000000000815260040160405180910390fd5b60008060608773ffffffffffffffffffffffffffffffffffffffff8816620018825788606e543462001840919062003ccf565b1462001878576040517fb89240f500000000000000000000000000000000000000000000000000000000815260040160405180910390fd5b6000925062001b6a565b606e543414620018be576040517fb89240f500000000000000000000000000000000000000000000000000000000815260040160405180910390fd5b73ffffffffffffffffffffffffffffffffffffffff8089166000908152606b602090815260409182902082518084019093525463ffffffff8116835264010000000090049092169181018290529015620019ae576040517f9dc29fac000000000000000000000000000000000000000000000000000000008152336004820152602481018b905273ffffffffffffffffffffffffffffffffffffffff8a1690639dc29fac90604401600060405180830381600087803b1580156200198157600080fd5b505af115801562001996573d6000803e3d6000fd5b50505050806020015194508060000151935062001b68565b6040517f70a0823100000000000000000000000000000000000000000000000000000000815230600482015260009073ffffffffffffffffffffffffffffffffffffffff8b16906370a0823190602401602060405180830381865afa15801562001a1c573d6000803e3d6000fd5b505050506040513d601f19601f8201168201806040525081019062001a42919062003ce5565b905062001a6873ffffffffffffffffffffffffffffffffffffffff8b1633308e620026d3565b6040517f70a0823100000000000000000000000000000000000000000000000000000000815230600482015260009073ffffffffffffffffffffffffffffffffffffffff8c16906370a0823190602401602060405180830381865afa15801562001ad6573d6000803e3d6000fd5b505050506040513d601f19601f8201168201806040525081019062001afc919062003ce5565b905062001b0a828262003ccf565b6068548c9850610100900463ffffffff169650935062001b2a8762002733565b62001b358c6200284b565b62001b408d62002958565b60405160200162001b54939291906200397b565b604051602081830303815290604052945050505b505b60705473ffffffffffffffffffffffffffffffffffffffff161562001d0c5773ffffffffffffffffffffffffffffffffffffffff881662001cbf576070546071805473ffffffffffffffffffffffffffffffffffffffff90921695509062001bd29062003887565b80601f016020809104026020016040519081016040528092919081815260200182805462001c009062003887565b801562001c515780601f1062001c255761010080835404028352916020019162001c51565b820191906000526020600020905b81548152906001019060200180831162001c3357829003601f168201915b5050606854939550505050610100900463ffffffff161562001cb95760725462001c7c908262003cff565b90508060000362001cb9576040517fc2f5625a00000000000000000000000000000000000000000000000000000000815260040160405180910390fd5b62001d0c565b60705473ffffffffffffffffffffffffffffffffffffffff9081169085160362001d0c5760685460009450610100900463ffffffff1662001d0c5760725462001d09908262003d3b565b90505b7f501781209a1f8899323b96b4ef08b168df93e0a90c673d1e4cce39366cb62f9b600084868e8e868860535460405162001d4e98979695949392919062003d55565b60405180910390a162001e4862001e42600085878f8f8789805190602001206040517fff0000000000000000000000000000000000000000000000000000000000000060f889901b1660208201527fffffffff0000000000000000000000000000000000000000000000000000000060e088811b821660218401527fffffffffffffffffffffffffffffffffffffffff000000000000000000000000606089811b821660258601529188901b909216603984015285901b16603d8201526051810183905260718101829052600090609101604051602081830303815290604052805190602001209050979650505050505050565b62002a54565b606f5473ffffffffffffffffffffffffffffffffffffffff161580159062001e7257506000606e54115b1562001f3657606f54606e5460408051600080825260208201928390529373ffffffffffffffffffffffffffffffffffffffff16929162001eb49190620038dc565b60006040518083038185875af1925050503d806000811462001ef3576040519150601f19603f3d011682016040523d82523d6000602084013e62001ef8565b606091505b505090508062001f34576040517f6747a28800000000000000000000000000000000000000000000000000000000815260040160405180910390fd5b505b861562001f475762001f4762002583565b5050505062001f5560018055565b50505050505050565b606c5473ffffffffffffffffffffffffffffffffffffffff16331462001fb0576040517fe2e8106b00000000000000000000000000000000000000000000000000000000815260040160405180910390fd5b6200080c62002b6c565b600084815b60208110156200209557600163ffffffff8616821c81169003620020315785816020811062001ff25762001ff262003a49565b60200201358260405160200162002013929190918252602082015260400190565b60405160208183030381529060405280519060200120915062002080565b8186826020811062002047576200204762003a49565b602002013560405160200162002067929190918252602082015260400190565b6040516020818303038152906040528051906020012091505b806200208c8162003aa7565b91505062001fbf565b50821490505b949350505050565b60685460ff1615620020e1576040517f2f0047fc00000000000000000000000000000000000000000000000000000000815260040160405180910390fd5b606880547fffffffffffffffffffffffffffffffffffffffffffffffffffffffffffffff001660011790556040517f2261efe5aef6fedc1fd1550b25facc9181745623049c7901287030b9ad1a549790600090a1565b620021488b63ffffffff1662002bfc565b6068546040805160208082018e90528183018d9052825180830384018152606083019384905280519101207f257b363200000000000000000000000000000000000000000000000000000000909252606481019190915260009165010000000000900473ffffffffffffffffffffffffffffffffffffffff169063257b3632906084016020604051808303816000875af1158015620021eb573d6000803e3d6000fd5b505050506040513d601f19601f8201168201806040525081019062002211919062003ce5565b9050806000036200224d576040517e2f6fad00000000000000000000000000000000000000000000000000000000815260040160405180910390fd5b60685463ffffffff888116610100909204161462002297576040517f0595ea2e00000000000000000000000000000000000000000000000000000000815260040160405180910390fd5b606854600090610100900463ffffffff16620022b5575089620022b8565b508a5b620023be620023b5848c8c8c8c8c8c8c604051620022d892919062003dce565b60405180910390206040517fff0000000000000000000000000000000000000000000000000000000000000060f889901b1660208201527fffffffff0000000000000000000000000000000000000000000000000000000060e088811b821660218401527fffffffffffffffffffffffffffffffffffffffff000000000000000000000000606089811b821660258601529188901b909216603984015285901b16603d8201526051810183905260718101829052600090609101604051602081830303815290604052805190602001209050979650505050505050565b8f8f8462001fba565b620023f5576040517fe0417cec00000000000000000000000000000000000000000000000000000000815260040160405180910390fd5b5050505050505050505050505050565b60405173ffffffffffffffffffffffffffffffffffffffff8316602482015260448101829052620024db9084907fa9059cbb00000000000000000000000000000000000000000000000000000000906064015b604080517fffffffffffffffffffffffffffffffffffffffffffffffffffffffffffffffe08184030181529190526020810180517bffffffffffffffffffffffffffffffffffffffffffffffffffffffff167fffffffff000000000000000000000000000000000000000000000000000000009093169290921790915262002c68565b505050565b600054610100900460ff1662002579576040517f08c379a000000000000000000000000000000000000000000000000000000000815260206004820152602b60248201527f496e697469616c697a61626c653a20636f6e7472616374206973206e6f74206960448201527f6e697469616c697a696e6700000000000000000000000000000000000000000060648201526084016200104c565b6200080c62002d7b565b6053546068805463ffffffff909216790100000000000000000000000000000000000000000000000000027fffffff00000000ffffffffffffffffffffffffffffffffffffffffffffffffff909216919091179081905573ffffffffffffffffffffffffffffffffffffffff65010000000000909104166333d6247d6200260962000eeb565b6040518263ffffffff1660e01b81526004016200262891815260200190565b600060405180830381600087803b1580156200264357600080fd5b505af115801562002658573d6000803e3d6000fd5b50505050565b600260015403620026cc576040517f08c379a000000000000000000000000000000000000000000000000000000000815260206004820152601f60248201527f5265656e7472616e637947756172643a207265656e7472616e742063616c6c0060448201526064016200104c565b6002600155565b60405173ffffffffffffffffffffffffffffffffffffffff80851660248301528316604482015260648101829052620026589085907f23b872dd000000000000000000000000000000000000000000000000000000009060840162002458565b60408051600481526024810182526020810180517bffffffffffffffffffffffffffffffffffffffffffffffffffffffff167f06fdde03000000000000000000000000000000000000000000000000000000001790529051606091600091829173ffffffffffffffffffffffffffffffffffffffff861691620027b79190620038dc565b600060405180830381855afa9150503d8060008114620027f4576040519150601f19603f3d011682016040523d82523d6000602084013e620027f9565b606091505b50915091508162002840576040518060400160405280600781526020017f4e4f5f4e414d45000000000000000000000000000000000000000000000000008152506200209b565b6200209b8162002e14565b60408051600481526024810182526020810180517bffffffffffffffffffffffffffffffffffffffffffffffffffffffff167f95d89b41000000000000000000000000000000000000000000000000000000001790529051606091600091829173ffffffffffffffffffffffffffffffffffffffff861691620028cf9190620038dc565b600060405180830381855afa9150503d80600081146200290c576040519150601f19603f3d011682016040523d82523d6000602084013e62002911565b606091505b50915091508162002840576040518060400160405280600981526020017f4e4f5f53594d424f4c00000000000000000000000000000000000000000000008152506200209b565b60408051600481526024810182526020810180517bffffffffffffffffffffffffffffffffffffffffffffffffffffffff167f313ce5670000000000000000000000000000000000000000000000000000000017905290516000918291829173ffffffffffffffffffffffffffffffffffffffff861691620029db9190620038dc565b600060405180830381855afa9150503d806000811462002a18576040519150601f19603f3d011682016040523d82523d6000602084013e62002a1d565b606091505b509150915081801562002a31575080516020145b62002a3e5760126200209b565b808060200190518101906200209b919062003dde565b80600162002a656020600262003f37565b62002a71919062003ccf565b6053541062002aac576040517fef5ccf6600000000000000000000000000000000000000000000000000000000815260040160405180910390fd5b600060536000815462002abf9062003aa7565b9182905550905060005b602081101562002b5b578082901c60011660010362002b0157826033826020811062002af95762002af962003a49565b015550505050565b6033816020811062002b175762002b1762003a49565b01546040805160208101929092528101849052606001604051602081830303815290604052805190602001209250808062002b529062003aa7565b91505062002ac9565b50620024db62003f45565b60018055565b60685460ff1662002ba9576040517f5386698100000000000000000000000000000000000000000000000000000000815260040160405180910390fd5b606880547fffffffffffffffffffffffffffffffffffffffffffffffffffffffffffffff001690556040517f1e5e34eea33501aecf2ebec9fe0e884a40804275ea7fe10b2ba084c8374308b390600090a1565b600881901c60008181526069602052604081208054600160ff861690811b9182189283905592909190818316900362002c61576040517f646cf55800000000000000000000000000000000000000000000000000000000815260040160405180910390fd5b5050505050565b600062002ccc826040518060400160405280602081526020017f5361666545524332303a206c6f772d6c6576656c2063616c6c206661696c65648152508573ffffffffffffffffffffffffffffffffffffffff16620030049092919063ffffffff16565b805190915015620024db578080602001905181019062002ced919062003f74565b620024db576040517f08c379a000000000000000000000000000000000000000000000000000000000815260206004820152602a60248201527f5361666545524332303a204552433230206f7065726174696f6e20646964206e60448201527f6f7420737563636565640000000000000000000000000000000000000000000060648201526084016200104c565b600054610100900460ff1662002b66576040517f08c379a000000000000000000000000000000000000000000000000000000000815260206004820152602b60248201527f496e697469616c697a61626c653a20636f6e7472616374206973206e6f74206960448201527f6e697469616c697a696e6700000000000000000000000000000000000000000060648201526084016200104c565b6060604082511062002e365781806020019051810190620008ab919062003f94565b815160200362002fc65760005b60208110801562002e8e575082818151811062002e645762002e6462003a49565b01602001517fff000000000000000000000000000000000000000000000000000000000000001615155b1562002ea9578062002ea08162003aa7565b91505062002e43565b8060000362002eed57505060408051808201909152601281527f4e4f545f56414c49445f454e434f44494e4700000000000000000000000000006020820152919050565b60008167ffffffffffffffff81111562002f0b5762002f0b62003497565b6040519080825280601f01601f19166020018201604052801562002f36576020820181803683370190505b50905060005b8281101562002fbe5784818151811062002f5a5762002f5a62003a49565b602001015160f81c60f81b82828151811062002f7a5762002f7a62003a49565b60200101907effffffffffffffffffffffffffffffffffffffffffffffffffffffffffffff1916908160001a9053508062002fb58162003aa7565b91505062002f3c565b509392505050565b505060408051808201909152601281527f4e4f545f56414c49445f454e434f44494e470000000000000000000000000000602082015290565b919050565b60606200209b8484600085856000808673ffffffffffffffffffffffffffffffffffffffff1685876040516200303b9190620038dc565b60006040518083038185875af1925050503d80600081146200307a576040519150601f19603f3d011682016040523d82523d6000602084013e6200307f565b606091505b509150915062003092878383876200309d565b979650505050505050565b6060831562003138578251600003620031305773ffffffffffffffffffffffffffffffffffffffff85163b62003130576040517f08c379a000000000000000000000000000000000000000000000000000000000815260206004820152601d60248201527f416464726573733a2063616c6c20746f206e6f6e2d636f6e747261637400000060448201526064016200104c565b50816200209b565b6200209b83838151156200314f5781518083602001fd5b806040517f08c379a00000000000000000000000000000000000000000000000000000000081526004016200104c91906200327c565b611b66806200401583390190565b803563ffffffff8116811462002fff57600080fd5b73ffffffffffffffffffffffffffffffffffffffff81168114620031cb57600080fd5b50565b60008060408385031215620031e257600080fd5b620031ed8362003193565b91506020830135620031ff81620031a8565b809150509250929050565b60005b83811015620032275781810151838201526020016200320d565b50506000910152565b600081518084526200324a8160208601602086016200320a565b601f017fffffffffffffffffffffffffffffffffffffffffffffffffffffffffffffffe0169290920160200192915050565b60208152600062003291602083018462003230565b9392505050565b806104008101831015620008ab57600080fd5b60008083601f840112620032be57600080fd5b50813567ffffffffffffffff811115620032d757600080fd5b602083019150836020828501011115620032f057600080fd5b9250929050565b60008060008060008060008060008060006105208c8e0312156200331a57600080fd5b620033268d8d62003298565b9a50620033376104008d0162003193565b99506104208c013598506104408c01359750620033586104608d0162003193565b96506104808c01356200336b81620031a8565b95506200337c6104a08d0162003193565b94506104c08c01356200338f81620031a8565b93506104e08c013592506105008c013567ffffffffffffffff811115620033b557600080fd5b620033c38e828f01620032ab565b915080935050809150509295989b509295989b9093969950565b600060208284031215620033f057600080fd5b81356200329181620031a8565b60ff81168114620031cb57600080fd5b600080600080600080600060e0888a0312156200342957600080fd5b87356200343681620033fd565b9650620034466020890162003193565b955060408801356200345881620031a8565b9450620034686060890162003193565b935060808801356200347a81620031a8565b9699959850939692959460a0840135945060c09093013592915050565b7f4e487b7100000000000000000000000000000000000000000000000000000000600052604160045260246000fd5b604051601f82017fffffffffffffffffffffffffffffffffffffffffffffffffffffffffffffffe016810167ffffffffffffffff8111828210171562003510576200351062003497565b604052919050565b600067ffffffffffffffff82111562003535576200353562003497565b50601f017fffffffffffffffffffffffffffffffffffffffffffffffffffffffffffffffe01660200190565b600082601f8301126200357357600080fd5b81356200358a620035848262003518565b620034c6565b818152846020838601011115620035a057600080fd5b816020850160208301376000918101602001919091529392505050565b60008060008060008060008060006101208a8c031215620035dd57600080fd5b620035e88a62003193565b985060208a0135620035fa81620031a8565b975060408a01356200360c81620031a8565b965060608a01356200361e81620031a8565b955060808a0135945060a08a01356200363781620031a8565b935060c08a01356200364981620031a8565b925060e08a013567ffffffffffffffff8111156200366657600080fd5b620036748c828d0162003561565b9250506101008a013590509295985092959850929598565b60008060408385031215620036a057600080fd5b8235620036ad81620031a8565b946020939093013593505050565b600060208284031215620036ce57600080fd5b5035919050565b600080600080600080600060a0888a031215620036f157600080fd5b620036fc8862003193565b965060208801356200370e81620031a8565b9550604088013567ffffffffffffffff808211156200372c57600080fd5b6200373a8b838c01620032ab565b909750955060608a01359150808211156200375457600080fd5b50620037638a828b01620032ab565b90945092505060808801356200377981620033fd565b8091505092959891949750929550565b8015158114620031cb57600080fd5b600080600080600080600060c0888a031215620037b457600080fd5b620037bf8862003193565b96506020880135620037d181620031a8565b9550604088013594506060880135620037ea81620031a8565b93506080880135620037fc8162003789565b925060a088013567ffffffffffffffff8111156200381957600080fd5b620038278a828b01620032ab565b989b979a50959850939692959293505050565b60008060008061046085870312156200385257600080fd5b8435935062003865866020870162003298565b925062003876610420860162003193565b939692955092936104400135925050565b600181811c908216806200389c57607f821691505b602082108103620038d6577f4e487b7100000000000000000000000000000000000000000000000000000000600052602260045260246000fd5b50919050565b60008251620038f08184602087016200320a565b9190910192915050565b6000806000606084860312156200391057600080fd5b833567ffffffffffffffff808211156200392957600080fd5b620039378783880162003561565b945060208601359150808211156200394e57600080fd5b506200395d8682870162003561565b92505060408401356200397081620033fd565b809150509250925092565b60608152600062003990606083018662003230565b8281036020840152620039a4818662003230565b91505060ff83166040830152949350505050565b8183528181602085013750600060208284010152600060207fffffffffffffffffffffffffffffffffffffffffffffffffffffffffffffffe0601f840116840101905092915050565b63ffffffff86168152600073ffffffffffffffffffffffffffffffffffffffff80871660208401528086166040840152506080606083015262003092608083018486620039b8565b7f4e487b7100000000000000000000000000000000000000000000000000000000600052603260045260246000fd5b7f4e487b7100000000000000000000000000000000000000000000000000000000600052601160045260246000fd5b60007fffffffffffffffffffffffffffffffffffffffffffffffffffffffffffffffff820362003adb5762003adb62003a78565b5060010190565b601f821115620024db57600081815260208120601f850160051c8101602086101562003b0b5750805b601f850160051c820191505b8181101562003b2c5782815560010162003b17565b505050505050565b815167ffffffffffffffff81111562003b515762003b5162003497565b62003b698162003b62845462003887565b8462003ae2565b602080601f83116001811462003bbf576000841562003b885750858301515b7fffffffffffffffffffffffffffffffffffffffffffffffffffffffffffffffff600386901b1c1916600185901b17855562003b2c565b6000858152602081207fffffffffffffffffffffffffffffffffffffffffffffffffffffffffffffffe08616915b8281101562003c0e5788860151825594840194600190910190840162003bed565b508582101562003c4b57878501517fffffffffffffffffffffffffffffffffffffffffffffffffffffffffffffffff600388901b60f8161c191681555b5050505050600190811b01905550565b60608152600062003c71606083018789620039b8565b828103602084015262003c86818688620039b8565b91505060ff831660408301529695505050505050565b6000835162003cb08184602088016200320a565b83519083019062003cc68183602088016200320a565b01949350505050565b81810381811115620008ab57620008ab62003a78565b60006020828403121562003cf857600080fd5b5051919050565b60008262003d36577f4e487b7100000000000000000000000000000000000000000000000000000000600052601260045260246000fd5b500490565b8082028115828204841417620008ab57620008ab62003a78565b600061010060ff8b16835263ffffffff808b16602085015273ffffffffffffffffffffffffffffffffffffffff808b166040860152818a1660608601528089166080860152508660a08501528160c085015262003db58285018762003230565b925080851660e085015250509998505050505050505050565b8183823760009101908152919050565b60006020828403121562003df157600080fd5b81516200329181620033fd565b600181815b8085111562003e5d57817fffffffffffffffffffffffffffffffffffffffffffffffffffffffffffffffff0482111562003e415762003e4162003a78565b8085161562003e4f57918102915b93841c939080029062003e03565b509250929050565b60008262003e7657506001620008ab565b8162003e8557506000620008ab565b816001811462003e9e576002811462003ea95762003ec9565b6001915050620008ab565b60ff84111562003ebd5762003ebd62003a78565b50506001821b620008ab565b5060208310610133831016604e8410600b841016171562003eee575081810a620008ab565b62003efa838362003dfe565b807fffffffffffffffffffffffffffffffffffffffffffffffffffffffffffffffff0482111562003f2f5762003f2f62003a78565b029392505050565b600062003291838362003e65565b7f4e487b7100000000000000000000000000000000000000000000000000000000600052600160045260246000fd5b60006020828403121562003f8757600080fd5b8151620032918162003789565b60006020828403121562003fa757600080fd5b815167ffffffffffffffff81111562003fbf57600080fd5b8201601f8101841362003fd157600080fd5b805162003fe2620035848262003518565b81815285602083850101111562003ff857600080fd5b6200400b8260208301602086016200320a565b9594505050505056fe6101006040523480156200001257600080fd5b5060405162001b6638038062001b6683398101604081905262000035916200028d565b82826003620000458382620003a1565b506004620000548282620003a1565b50503360c0525060ff811660e052466080819052620000739062000080565b60a052506200046d915050565b60007f8b73c3c69bb8fe3d512ecc4cf759cc79239f7b179b0ffacaa9a75d522b39400f620000ad6200012e565b805160209182012060408051808201825260018152603160f81b90840152805192830193909352918101919091527fc89efdaa54c0f20c7adf612882df0950f5a951637e0307cdcb4c672f298b8bc66060820152608081018390523060a082015260c001604051602081830303815290604052805190602001209050919050565b6060600380546200013f9062000312565b80601f01602080910402602001604051908101604052809291908181526020018280546200016d9062000312565b8015620001be5780601f106200019257610100808354040283529160200191620001be565b820191906000526020600020905b815481529060010190602001808311620001a057829003601f168201915b5050505050905090565b634e487b7160e01b600052604160045260246000fd5b600082601f830112620001f057600080fd5b81516001600160401b03808211156200020d576200020d620001c8565b604051601f8301601f19908116603f01168101908282118183101715620002385762000238620001c8565b816040528381526020925086838588010111156200025557600080fd5b600091505b838210156200027957858201830151818301840152908201906200025a565b600093810190920192909252949350505050565b600080600060608486031215620002a357600080fd5b83516001600160401b0380821115620002bb57600080fd5b620002c987838801620001de565b94506020860151915080821115620002e057600080fd5b50620002ef86828701620001de565b925050604084015160ff811681146200030757600080fd5b809150509250925092565b600181811c908216806200032757607f821691505b6020821081036200034857634e487b7160e01b600052602260045260246000fd5b50919050565b601f8211156200039c57600081815260208120601f850160051c81016020861015620003775750805b601f850160051c820191505b81811015620003985782815560010162000383565b5050505b505050565b81516001600160401b03811115620003bd57620003bd620001c8565b620003d581620003ce845462000312565b846200034e565b602080601f8311600181146200040d5760008415620003f45750858301515b600019600386901b1c1916600185901b17855562000398565b600085815260208120601f198616915b828110156200043e578886015182559484019460019091019084016200041d565b50858210156200045d5787850151600019600388901b60f8161c191681555b5050505050600190811b01905550565b60805160a05160c05160e0516116aa620004bc6000396000610237015260008181610307015281816105c001526106a70152600061053a015260008181610379015261050401526116aa6000f3fe608060405234801561001057600080fd5b50600436106101775760003560e01c806370a08231116100d8578063a457c2d71161008c578063d505accf11610066578063d505accf1461039b578063dd62ed3e146103ae578063ffa1ad74146103f457600080fd5b8063a457c2d71461034e578063a9059cbb14610361578063cd0d00961461037457600080fd5b806395d89b41116100bd57806395d89b41146102e75780639dc29fac146102ef578063a3c573eb1461030257600080fd5b806370a08231146102915780637ecebe00146102c757600080fd5b806330adf81f1161012f5780633644e515116101145780633644e51514610261578063395093511461026957806340c10f191461027c57600080fd5b806330adf81f14610209578063313ce5671461023057600080fd5b806318160ddd1161016057806318160ddd146101bd57806320606b70146101cf57806323b872dd146101f657600080fd5b806306fdde031461017c578063095ea7b31461019a575b600080fd5b610184610430565b60405161019191906113e4565b60405180910390f35b6101ad6101a8366004611479565b6104c2565b6040519015158152602001610191565b6002545b604051908152602001610191565b6101c17f8b73c3c69bb8fe3d512ecc4cf759cc79239f7b179b0ffacaa9a75d522b39400f81565b6101ad6102043660046114a3565b6104dc565b6101c17f6e71edae12b1b97f4d1f60370fef10105fa2faae0126114a169c64845d6126c981565b60405160ff7f0000000000000000000000000000000000000000000000000000000000000000168152602001610191565b6101c1610500565b6101ad610277366004611479565b61055c565b61028f61028a366004611479565b6105a8565b005b6101c161029f3660046114df565b73ffffffffffffffffffffffffffffffffffffffff1660009081526020819052604090205490565b6101c16102d53660046114df565b60056020526000908152604090205481565b610184610680565b61028f6102fd366004611479565b61068f565b6103297f000000000000000000000000000000000000000000000000000000000000000081565b60405173ffffffffffffffffffffffffffffffffffffffff9091168152602001610191565b6101ad61035c366004611479565b61075e565b6101ad61036f366004611479565b61082f565b6101c17f000000000000000000000000000000000000000000000000000000000000000081565b61028f6103a9366004611501565b61083d565b6101c16103bc366004611574565b73ffffffffffffffffffffffffffffffffffffffff918216600090815260016020908152604080832093909416825291909152205490565b6101846040518060400160405280600181526020017f310000000000000000000000000000000000000000000000000000000000000081525081565b60606003805461043f906115a7565b80601f016020809104026020016040519081016040528092919081815260200182805461046b906115a7565b80156104b85780601f1061048d576101008083540402835291602001916104b8565b820191906000526020600020905b81548152906001019060200180831161049b57829003601f168201915b5050505050905090565b6000336104d0818585610b73565b60019150505b92915050565b6000336104ea858285610d27565b6104f5858585610dfe565b506001949350505050565b60007f00000000000000000000000000000000000000000000000000000000000000004614610537576105324661106d565b905090565b507f000000000000000000000000000000000000000000000000000000000000000090565b33600081815260016020908152604080832073ffffffffffffffffffffffffffffffffffffffff871684529091528120549091906104d090829086906105a3908790611629565b610b73565b3373ffffffffffffffffffffffffffffffffffffffff7f00000000000000000000000000000000000000000000000000000000000000001614610672576040517f08c379a000000000000000000000000000000000000000000000000000000000815260206004820152603060248201527f546f6b656e577261707065643a3a6f6e6c794272696467653a204e6f7420506f60448201527f6c79676f6e5a6b45564d4272696467650000000000000000000000000000000060648201526084015b60405180910390fd5b61067c8282611135565b5050565b60606004805461043f906115a7565b3373ffffffffffffffffffffffffffffffffffffffff7f00000000000000000000000000000000000000000000000000000000000000001614610754576040517f08c379a000000000000000000000000000000000000000000000000000000000815260206004820152603060248201527f546f6b656e577261707065643a3a6f6e6c794272696467653a204e6f7420506f60448201527f6c79676f6e5a6b45564d427269646765000000000000000000000000000000006064820152608401610669565b61067c8282611228565b33600081815260016020908152604080832073ffffffffffffffffffffffffffffffffffffffff8716845290915281205490919083811015610822576040517f08c379a000000000000000000000000000000000000000000000000000000000815260206004820152602560248201527f45524332303a2064656372656173656420616c6c6f77616e63652062656c6f7760448201527f207a65726f0000000000000000000000000000000000000000000000000000006064820152608401610669565b6104f58286868403610b73565b6000336104d0818585610dfe565b834211156108cc576040517f08c379a0000000000000000000000000000000000000000000000000000000008152602060048201526024808201527f546f6b656e577261707065643a3a7065726d69743a204578706972656420706560448201527f726d6974000000000000000000000000000000000000000000000000000000006064820152608401610669565b73ffffffffffffffffffffffffffffffffffffffff8716600090815260056020526040812080547f6e71edae12b1b97f4d1f60370fef10105fa2faae0126114a169c64845d6126c9918a918a918a9190866109268361163c565b9091555060408051602081019690965273ffffffffffffffffffffffffffffffffffffffff94851690860152929091166060840152608083015260a082015260c0810186905260e0016040516020818303038152906040528051906020012090506000610991610500565b6040517f19010000000000000000000000000000000000000000000000000000000000006020820152602281019190915260428101839052606201604080517fffffffffffffffffffffffffffffffffffffffffffffffffffffffffffffffe08184030181528282528051602091820120600080855291840180845281905260ff89169284019290925260608301879052608083018690529092509060019060a0016020604051602081039080840390855afa158015610a55573d6000803e3d6000fd5b50506040517fffffffffffffffffffffffffffffffffffffffffffffffffffffffffffffffe0015191505073ffffffffffffffffffffffffffffffffffffffff811615801590610ad057508973ffffffffffffffffffffffffffffffffffffffff168173ffffffffffffffffffffffffffffffffffffffff16145b610b5c576040517f08c379a000000000000000000000000000000000000000000000000000000000815260206004820152602760248201527f546f6b656e577261707065643a3a7065726d69743a20496e76616c696420736960448201527f676e6174757265000000000000000000000000000000000000000000000000006064820152608401610669565b610b678a8a8a610b73565b50505050505050505050565b73ffffffffffffffffffffffffffffffffffffffff8316610c15576040517f08c379a0000000000000000000000000000000000000000000000000000000008152602060048201526024808201527f45524332303a20617070726f76652066726f6d20746865207a65726f2061646460448201527f72657373000000000000000000000000000000000000000000000000000000006064820152608401610669565b73ffffffffffffffffffffffffffffffffffffffff8216610cb8576040517f08c379a000000000000000000000000000000000000000000000000000000000815260206004820152602260248201527f45524332303a20617070726f766520746f20746865207a65726f20616464726560448201527f73730000000000000000000000000000000000000000000000000000000000006064820152608401610669565b73ffffffffffffffffffffffffffffffffffffffff83811660008181526001602090815260408083209487168084529482529182902085905590518481527f8c5be1e5ebec7d5bd14f71427d1e84f3dd0314c0f7b2291e5b200ac8c7c3b92591015b60405180910390a3505050565b73ffffffffffffffffffffffffffffffffffffffff8381166000908152600160209081526040808320938616835292905220547fffffffffffffffffffffffffffffffffffffffffffffffffffffffffffffffff8114610df85781811015610deb576040517f08c379a000000000000000000000000000000000000000000000000000000000815260206004820152601d60248201527f45524332303a20696e73756666696369656e7420616c6c6f77616e63650000006044820152606401610669565b610df88484848403610b73565b50505050565b73ffffffffffffffffffffffffffffffffffffffff8316610ea1576040517f08c379a000000000000000000000000000000000000000000000000000000000815260206004820152602560248201527f45524332303a207472616e736665722066726f6d20746865207a65726f20616460448201527f64726573730000000000000000000000000000000000000000000000000000006064820152608401610669565b73ffffffffffffffffffffffffffffffffffffffff8216610f44576040517f08c379a000000000000000000000000000000000000000000000000000000000815260206004820152602360248201527f45524332303a207472616e7366657220746f20746865207a65726f206164647260448201527f65737300000000000000000000000000000000000000000000000000000000006064820152608401610669565b73ffffffffffffffffffffffffffffffffffffffff831660009081526020819052604090205481811015610ffa576040517f08c379a000000000000000000000000000000000000000000000000000000000815260206004820152602660248201527f45524332303a207472616e7366657220616d6f756e742065786365656473206260448201527f616c616e636500000000000000000000000000000000000000000000000000006064820152608401610669565b73ffffffffffffffffffffffffffffffffffffffff848116600081815260208181526040808320878703905593871680835291849020805487019055925185815290927fddf252ad1be2c89b69c2b068fc378daa952ba7f163c4a11628f55a4df523b3ef910160405180910390a3610df8565b60007f8b73c3c69bb8fe3d512ecc4cf759cc79239f7b179b0ffacaa9a75d522b39400f611098610430565b8051602091820120604080518082018252600181527f310000000000000000000000000000000000000000000000000000000000000090840152805192830193909352918101919091527fc89efdaa54c0f20c7adf612882df0950f5a951637e0307cdcb4c672f298b8bc66060820152608081018390523060a082015260c001604051602081830303815290604052805190602001209050919050565b73ffffffffffffffffffffffffffffffffffffffff82166111b2576040517f08c379a000000000000000000000000000000000000000000000000000000000815260206004820152601f60248201527f45524332303a206d696e7420746f20746865207a65726f2061646472657373006044820152606401610669565b80600260008282546111c49190611629565b909155505073ffffffffffffffffffffffffffffffffffffffff8216600081815260208181526040808320805486019055518481527fddf252ad1be2c89b69c2b068fc378daa952ba7f163c4a11628f55a4df523b3ef910160405180910390a35050565b73ffffffffffffffffffffffffffffffffffffffff82166112cb576040517f08c379a000000000000000000000000000000000000000000000000000000000815260206004820152602160248201527f45524332303a206275726e2066726f6d20746865207a65726f2061646472657360448201527f73000000000000000000000000000000000000000000000000000000000000006064820152608401610669565b73ffffffffffffffffffffffffffffffffffffffff821660009081526020819052604090205481811015611381576040517f08c379a000000000000000000000000000000000000000000000000000000000815260206004820152602260248201527f45524332303a206275726e20616d6f756e7420657863656564732062616c616e60448201527f63650000000000000000000000000000000000000000000000000000000000006064820152608401610669565b73ffffffffffffffffffffffffffffffffffffffff83166000818152602081815260408083208686039055600280548790039055518581529192917fddf252ad1be2c89b69c2b068fc378daa952ba7f163c4a11628f55a4df523b3ef9101610d1a565b600060208083528351808285015260005b81811015611411578581018301518582016040015282016113f5565b5060006040828601015260407fffffffffffffffffffffffffffffffffffffffffffffffffffffffffffffffe0601f8301168501019250505092915050565b803573ffffffffffffffffffffffffffffffffffffffff8116811461147457600080fd5b919050565b6000806040838503121561148c57600080fd5b61149583611450565b946020939093013593505050565b6000806000606084860312156114b857600080fd5b6114c184611450565b92506114cf60208501611450565b9150604084013590509250925092565b6000602082840312156114f157600080fd5b6114fa82611450565b9392505050565b600080600080600080600060e0888a03121561151c57600080fd5b61152588611450565b965061153360208901611450565b95506040880135945060608801359350608088013560ff8116811461155757600080fd5b9699959850939692959460a0840135945060c09093013592915050565b6000806040838503121561158757600080fd5b61159083611450565b915061159e60208401611450565b90509250929050565b600181811c908216806115bb57607f821691505b6020821081036115f4577f4e487b7100000000000000000000000000000000000000000000000000000000600052602260045260246000fd5b50919050565b7f4e487b7100000000000000000000000000000000000000000000000000000000600052601160045260246000fd5b808201808211156104d6576104d66115fa565b60007fffffffffffffffffffffffffffffffffffffffffffffffffffffffffffffffff820361166d5761166d6115fa565b506001019056fea26469706673582212206fe049be388a1d04319b9913fe6d100c4c8e272fe0f5748eb056bd0622beabcc64736f6c63430008140033a26469706673582212206576cd42e033a825687c20663ec19b21b00e453b3b81ceaa80a70cc38cf20dc664736f6c63430008140033",
  "linkReferences": {},
  "deployedLinkReferences": {}
}